:020000040800F2
:10000000D8060020890100082D10000829100008DA
:100010002B1000088F020008E51300080000000004
:10002000000000000000000000000000ED100008CB
:10003000CD020008000000002F100008EF1000089B
:10004000A3010008A3010008A3010008A301000800
:10005000A3010008A3010008A3010008A3010008F0
:10006000A3010008A3010008A3010008A3010008E0
:10007000A3010008A3010008A3010008A3010008D0
:10008000A3010008A3010008A3010008A3010008C0
:10009000A3010008A3010008A3010008A3010008B0
:1000A000A3010008A3010008A3010008A3010008A0
:1000B000A3010008A3010008A3010008A301000890
:1000C000A3010008A3010008A3010008A301000880
:1000D000A3010008D9130008A3010008A301000828
:1000E000A3010008A3010008A301000800F002F822
:1000F00000F03AF80AA090E8000C82448344AAF188
:100100000107DA4501D100F02FF8AFF2090EBAE885
:100110000F0013F0010F18BFFB1A43F0010318473B
:100120006017000080170000103A24BF78C878C11B
:10013000FAD8520724BF30C830C144BF04680C60ED
:10014000704700000023002400250026103A28BF35
:1001500078C1FBD8520728BF30C148BF0B60704739
:100160001FB51FBD10B510BD00F058F81146FFF7C0
:10017000F7FF01F049F900F076F803B4FFF7F2FF5A
:1001800003BC00F07DF8000009488047094800479B
:10019000FEE7FEE7FEE7FEE7FEE7FEE7FEE7FEE737
:1001A000FEE7FEE704480549054A064B7047000094
:1001B0004F110008ED000008D8000020D8060020EC
:1001C000D8020020D80200204FF0000200B51346EC
:1001D00094469646203922BFA0E80C50A0E80C5067
:1001E000B1F12001BFF4F7AF090728BFA0E80C5018
:1001F00048BF0CC05DF804EB890028BF40F8042B11
:1002000008BF704748BF20F8022B11F0804F18BF7D
:1002100000F8012B7047704770477047754600F033
:100220002BF8AE4605006946534620F00700854688
:1002300018B020B5FFF7B6FFBDE820404FF000062C
:100240004FF000074FF000084FF0000B21F00701BE
:10025000AC46ACE8C009ACE8C009ACE8C009ACE801
:10026000C0098D46704710B50446AFF300802046A4
:10027000BDE81040FFF781BF0048704778000020BC
:1002800001491820ABBEFEE7260002007047FEE7DA
:1002900000218173017041707047012101700021BC
:1002A0004170704710B541EA002000B201F040F9FA
:1002B0006FF00E0201F089FA0022034B01F050F9B1
:1002C000BDE8104001F0FAB800806640704730B5D4
:1002D00083780122552B12D0417800290ED0817BE2
:1002E000C51C4C1C84734B55817B0B2906D1002106
:1002F000817341700179532900D1027030BD427081
:10030000EDE710B590F821100022022905D0042154
:10031000816380F82020012010BD01680B6823F064
:100320000E030B6001680B6823F001030B6090F86B
:100330004030C46B012101FA03F3636080F821109F
:1003400080F82020104610BD10B590F82110002430
:10035000022903D00421816301243DE001680A6879
:1003600022F00E020A6001680A6822F001020A60A7
:100370001A4A0168914201D1012121E0174A143241
:10038000914201D110211BE0144A2832914201D13F
:10039000891515E0114A3C32914201D189140FE0D0
:1003A0000E4A5032914202D14FF4803108E00B4A9C
:1003B0006432914202D14FF4801101E04FF080711C
:1003C000064A083A5160012180F82110002180F886
:1003D0002010416B01B18847204610BD0800024043
:1003E0002DE9F84FDFF8B8910024A9F1040B23465A
:1003F0000F2709F1040AABF1040EC9E00125A5405D
:100400002A40AA427DD1674ED1F804C0ACEB060861
:10041000B44532D014DCBCF1030F3AD009DCBCF196
:10042000000F2AD0BCF1010F1CD0BCF1020F31D15A
:100430001DE0BCF1110F17D0BCF1120F2AD119E049
:10044000B8F5881F19D006DCB8F5803F15D0B8F58F
:10045000801F1FD111E0B8F5001F0ED0B8F5041FA2
:1004600018D10AE0CB6815E0CB681B1D12E0CB6801
:1004700008330FE0CB680C330CE08B682BB1012BF9
:100480004FF0080303D0456104E0042302E0056156
:1004900000E00023FF2A01D8064601E000F104062F
:1004A0004FEA840501D9A5F12005D6F8008007FAA6
:1004B00005FC28EA0C0803FA05F548EA0508C6F821
:1004C00000804D68ED0062D5374DAE6946F00106FB
:1004D000AE61AD6924F0030605F001050095334DCA
:1004E00006EB050CDCF80850A607360F07FA06F8ED
:1004F00025EA0805DFF8B880404503D14FF0000831
:1005000017E044E0DFF8AC80404502D14FF001082D
:100510000FE0DFF8A480404502D14FF0020808E068
:10052000DFF89880404502D14FF0030801E04FF01A
:10053000040808FA06F848EA0508CCF808804D686F
:10054000D9F80060ED024D4601D5164300E0964310
:100550002E604D68DAF80060AD02554601D51643AD
:1005600000E096432E604D68DBF80060AD035D4609
:1005700001D5164300E096432E604D68DEF800601A
:10058000ED03754601D5164300E096432E60641CCA
:100590000D682A46E5407FF431AFBDE8F88F0000D2
:1005A000080401400000111000100240000001404A
:1005B00000080140000C01400010014000140140FF
:1005C00001488068704700001000002002488168E0
:1005D000027811448160704710000020074810B570
:1005E000016841F010010160032000F075F80F2050
:1005F00000F006F800F024F8002010BD00200240B2
:1006000070B50D4D04464FF47A712878B1FBF0F0C7
:100610000A490968B1FBF0F000F0DCFA48B9102C87
:1006200007D200222146501E00F036F800206C60F0
:1006300070BD012070BD0000100000201C000020D3
:100640000C4808B5816941F001018161816901F0BF
:1006500001010091C16941F08051C161C06900F0A0
:10066000805000900448416821F0E06141F0007141
:10067000416008BD0010024000000140002809DB75
:1006800000F01F02012191404009800000F1E020AC
:10069000C0F8001170470000F0B40E4B1B680C4608
:1006A000C3F30223C3F10705042D00D90425191D46
:1006B000072901D2002300E0DB1E012606FA05F11E
:1006C000491E214099409E40761E16403143F0BCA1
:1006D00000F089BE0CED00E0064900F00702086852
:1006E0004FF6FF03184040EA0220034A1043086017
:1006F000704700000CED00E00000FA052DE9F0471E
:100700000F46050061D0434E306800F00700B84244
:1007100009D2306820F0070038433060306800F0BC
:100720000700B84251D128683B4C810712D54007D9
:1007300003D5606840F4E06060602878000703D566
:10074000606840F4605060606068A96820F0F00064
:10075000084360602878C00728D06868012810D056
:100760002168022810D0890700292EDA616821F05B
:10077000030101436160FFF723FF804641F288399E
:100780000DE021688903EFE78901EDE7FFF718FF26
:10079000A0EB0801494502D90320BDE8F087606855
:1007A000696800F00C00B0EB810FEFD1306800F009
:1007B0000700B8420BD9306820F00700384330609A
:1007C000306800F00700B84201D00120E5E7287842
:1007D000400705D56068E96820F4E0600843606080
:1007E0002878000706D56068296920F4605040EA3F
:1007F000C100606000F038F86168084AC1F3031175
:10080000515CC8400649086006480068FFF7F8FEDA
:100810000020C2E7002002400010024068180008D3
:100820001C000020140000200448054900684968A5
:10083000044AC1F30221515CC84070471C000020EB
:10084000001002407818000804480549006849680B
:10085000044AC1F3C221515CC84070471C0000200B
:1008600000100240781800080E4A51680E4801F046
:100870000C03042B11D0082B0FD10C48C1F3834378
:10088000C903C05C0AD55168084AC1F34041921EB1
:10089000515C054A5043B0FBF1F0704704494843AE
:1008A000704700000010024000127A00581800083B
:1008B00000093D002DE9F84F040070D02078C04DAC
:1008C000C00749D06868C0F38100012807D0686874
:1008D000C0F38100022809D16868C00306D52868E2
:1008E000800339D560680028E7D035E06068B0F54E
:1008F000803F0BD010B1B0F5A02F11D0286820F4A4
:1009000080302860286820F4802002E0286840F4C5
:1009100080302860606890B1FFF752FE06460AE01A
:10092000286840F480202860F0E700BFFFF748FE09
:10093000801B642873D828688003F7D50CE0FFF784
:100940003FFE064605E000BFFFF73AFE801B642825
:10095000F0D828688003F7D420789A4E80074FF0AB
:1009600001094FF0000839D5686810F00C0F07D066
:100970006868C0F38100022809D16868C00306D402
:100980002868800714D52069012808D110E0206963
:10099000B0B1C6F80090FFF713FE074605E00AE184
:1009A000FFF70EFEC01B0228C4D828688007F7D5C1
:1009B0002868616920F0F80040EAC10028600DE075
:1009C000C6F80080FFF7FCFD074604E0FFF7F8FDDE
:1009D000C01B022823D828688007F7D42078000796
:1009E0002CD57948A169D9B1C0F80090FFF7E8FD8E
:1009F000074604E0FFF7E4FDC01B02280FD8686A31
:100A00008007F7D571484FF4FA510068B0FBF1F058
:100A1000009000BF0098411E0091FAD20EE080E0E5
:100A2000C0F80080FFF7CCFD074604E0FFF7C8FDE3
:100A3000C01B022875D8686A8007F7D42078400761
:100A400060D5E8690027C00008D4E86940F080500C
:100A5000E861E869012700F0805000905C48016877
:100A6000C90513D40168834641F480710160FFF722
:100A7000A7FD824606E000BFFFF7A2FDA0EB0A003B
:100A800064284ED8DBF80000C005F5D5E0680128E1
:100A90000AD008B1052813D0286A20F00100286286
:100AA000286A20F0040002E0286A40F00100286271
:100AB000E06841F2883B98B1FFF782FD82460BE087
:100AC000286A40F004002862EEE700BFFFF778FDD7
:100AD000A0EB0A0159455AD8286A8007F6D50CE0E0
:100AE000FFF76EFD824605E0FFF76AFDA0EB0A0105
:100AF00059454CD8286A8007F6D41FB1E86920F020
:100B00008050E861E06988B36968C1F38101022916
:100B100044D00228C6F8608004D0FFF751FD044697
:100B200038E034E0FFF74CFD074604E0FFF748FDEE
:100B3000C01B02282BD828688001F7D4206AB0F5A2
:100B4000803F05D16868A16820F4003008436860E0
:100B5000D4E908010843696821F474110843686006
:100B6000C6F86090FFF72CFD044606E025E000BFC4
:100B7000FFF726FD001B022809D828688001F7D559
:100B80001BE000BFFFF71CFD001B022802D9032059
:100B9000BDE8F88F28688001F4D40EE00128F7D072
:100BA0006868226A00F48031914204D1616A00F4DD
:100BB0007010884201D00120EAE70020E8E7000039
:100BC0000010024000004242800442421C0000200B
:100BD0000070004010B5401EB0F1807F01D30120AD
:100BE00010BD4FF0E02460610F21601700F0FBFBA7
:100BF0000020A06107202061002010BD70477047D1
:100C0000F8B5016804460868CA684B6910F00F0F10
:100C10004FF0000559D003F0010602F490773743F6
:100C200065D0C10705D0D10503D5616C41F0010144
:100C30006164410705D5D90703D0616C41F0020119
:100C40006164810705D5D90703D0616C41F00401C7
:100C50006164010707D502F02001314303D0616CC4
:100C600041F008016164616C00293AD0800604D526
:100C7000900602D5204600F09AFA20684069616C1F
:100C8000C0F38010090700D460B3204600F068FA72
:100C900020684069400621D52068143050E8001FC4
:100CA00021F0400140E80012002AF5D1E06BA8B124
:100CB0006D494163E06BFFF747FB002811D0E06B03
:100CC000416B01B0BDE8F040084783060FD593069D
:100CD0000DD52046BDE8F84000F069BA2046FFF780
:100CE0008EFFF8BD2046FFF78AFF6564F8BD266BCE
:100CF0002023012E7CD1C6067AD5D60678D5086881
:100D00004868009048694FF00206400640D5E16B04
:100D1000086840680004000CE8D0A28D8242E5D942
:100D2000E085886920282DD020680C3050E8001F0D
:100D300021F4807140E80012002AF5D120681430B7
:100D400050E8001F21F0010140E80012002AF5D10F
:100D50002068143050E8001F21F0400140E80012E4
:100D6000002AF5D184F84230256320680C3050E821
:100D7000001F21F0100140E80012002AF5D1E06BBD
:100D8000FFF7BFFA6663A08DE18D401A81B22AE0B9
:100D9000A08DE18D401A81B2E08D0028A6D00029F7
:100DA000A4D022680C3252E8000F20F4907042E880
:100DB0000007002FF5D12068143050E8002F22F0F2
:100DC000010240E80027002FF5D184F84230256366
:100DD00020680C3050E8002F22F0100240E8002379
:100DE000002BF5D166632046FFF708FFF8BDFFE74B
:100DF00005062BD5150629D594F841002128F5D1F3
:100E0000A068B0F5805F01D12069B0B1206A411CB3
:100E10002162216800784860E08C401E0004000CCC
:100E2000E084E3D12068C16821F08001C1602068BE
:100E3000C16841F04001C160D8E7206A0088C0F372
:100E400008004860206A801C2062E5E74006CDD596
:100E50005006CBD5CA68204622F04002CA6084F80A
:100E6000413000F0E0F8C1E75111000870B504000E
:100E700004D094F84100002510B106E0012070BDB7
:100E800084F84050204600F023F8242084F84100E4
:100E90002068C16821F40051C160204600F0E8F9E3
:100EA0002068016921F4904101612068416921F0C5
:100EB0002A0141612068C16841F40051C160656444
:100EC000202084F8410084F842006563002070BD52
:100ED00030B585B000240094019402940394006816
:100EE000184988422CD11848816941F480418161B8
:100EF000816901F480410491816941F004018161BB
:100F00008069124D00F0040004904FF400700090CE
:100F1000022001900320039069462846FFF760FAFB
:100F20002815CDE90004694628460294FFF758FACF
:100F3000002201212520FFF7AFFB2520FFF79EFBB4
:100F400005B030BD003801400010024000080140EB
:100F500090F84230202B01D00220704721B11AB105
:100F60000023036300F0E0B90120704710B5064884
:100F7000FFF7ADF904490122891CBDE81040A1F139
:100F80004A00FFF7E5BF0000680000202DE9F843A4
:100F9000044690F841001F4616460D46202802D010
:100FA0000220BDE8F8837DB176B100206064212085
:100FB00084F84100FFF704FBA6848046E684A0681D
:100FC000B0F5805F02D003E00120EAE7206910B1AC
:100FD0002E4600250EE000260CE08021204600F081
:100FE000BEF9A0B9AEB116F8010B21684860E08CDB
:100FF000401EE084E08C43464FF00002009700283A
:10100000EBD14FF04001204600F0A9F930B10320A8
:10101000C7E735F8020BC0F30800E6E7202084F8A4
:1010200041000020BDE77047FEE7FEE7FEE770479E
:10103000F0B50C4627A187B00746D1E90001CDE9FC
:10104000000126A1D1E90001CDE9020125A1D1E9E4
:101050000001CDE904012078002838D060784FF4F1
:10106000FA6558B9FFF7ACFA60802B46052269464D
:101070003846FFF78BFF6078401C6070FFF7A0FADE
:1010800061884FF47A76401AB0420ED96078012810
:101090000BD12B46052202A93846FFF777FFFFF751
:1010A0008FFA60806078401C6070FFF789FA618871
:1010B000401AB0420BD96078022808D12B4605228D
:1010C00004A93846FFF762FF00206070207007B067
:1010D000F0BD0000FFAA6988B5000000FFAA010466
:1010E00000000000FFAA0000000000007047FFF7AA
:1010F0006DBA30B58FB028216846FFF765F8142126
:101100000AA8FFF761F8022501200490009510203D
:10111000059000244FF46010CDE90840079568461B
:10112000FFF7C8FB08B172B6FEE70F20CDE90A054C
:101130004FF48060CDE90C4002210AA80E94FFF71D
:10114000DDFA002801D072B6FEE70FB030BD70475F
:1011500010B5406A0021C185C184FFF750FD10BD64
:1011600001680C3151E8002F22F4907241E800230D
:10117000002BF5D10168143151E8002F22F0010253
:1011800041E80023002BF5D1016B012909D1016849
:101190000C3151E8002F22F0100241E80023002B0F
:1011A000F5D1202180F8421000210163704708B575
:1011B00090F84210222901D0022008BD82684FF425
:1011C00080539A4201D1016921B1816A9A421BD0B0
:1011D0004AB10AE00268816A5268C2F308020A80D2
:1011E000816A891C08E0026972B10268526802F0E3
:1011F0007F020A70816A491C8162C18D491E0904FF
:10120000090CC18503D01BE002685268F1E7016850
:10121000CA6822F02002CA600168CA6822F480729B
:10122000CA6001684A6922F001024A61202180F8FF
:10123000421000214163026B012A03D0FFF796FEA2
:10124000002008BD016301680C3151E8002F22F035
:10125000100241E80023002BF5D101680A68D2068C
:1012600002D50A6849680091818DFFF7C7FCE7E75E
:1012700070B5044600680169E26821F440511143E9
:1012800001612169A0680843616908432168CA684F
:1012900041F20C639A430243CA6020684169A26923
:1012A00021F44071114341611E492068884202D1F6
:1012B000FFF7CAFA01E0FFF7B7FA00EBC00101EB54
:1012C0000012606864218000B2FBF0F3B3FBF1F31D
:1012D0006FF018067343B2FBF0F5B2FBF0F605EBC6
:1012E0008305322303EB0515B5FBF1F5B6FBF1F6EB
:1012F00005F0F00505EB0615B2FBF0F6B2FBF0F0D9
:10130000B0FBF1F06FF01802504306EB800003EBE6
:101310000010B0FBF1F0216800F00F002844886055
:1013200070BD00000038014081628285C2850021C5
:101330004164222180F84210016921B10168CA6824
:1013400042F48072CA6001684A6942F001024A614F
:101350000068C16841F02001C160002070472DE99C
:10136000F041984617460E460446069D27E0681C45
:1013700025D02DB1FFF724F9A0EB0800A8421ED913
:1013800020680C3050E8001F21F4D07140E80012B2
:10139000002AF5D12068143050E8001F21F0010127
:1013A00040E80012002AF5D1202084F8410084F89A
:1013B0004200002084F840000320BDE8F08120684E
:1013C000006836EA000004D00020B842CFD00020E8
:1013D000F3E70120F9E700000148FFF711BC000026
:1013E00020000020FEE70907090E002804DB00F1B9
:1013F000E02080F80014704700F00F0000F1E020BA
:1014000080F8141D7047000008B5FFF7E7F8FFF7F4
:1014100070FE2648816941F020018161816901F0F7
:1014200020010091816941F00401816180692049B6
:1014300000F0040000901F48002501604FF4E131E6
:10144000C0E901150C21C560C0E904518561C56181
:10145000FFF70CFD08B172B6FEE716484830FEF7FC
:1014600017FF1548FEF719FF124C01224834A11C42
:101470001048FFF76DFD10490E48FFF7D9FD2078A1
:101480000028F8D06179A079FEF70CFF0A4E0C3ED7
:101490003060E179207AFEF705FF7060617AA07A0A
:1014A000FEF700FFB0602570E5E700000010024085
:1014B00000380140200000200C00002021F00042F4
:1014C000A2F16052B2F5801F01F0004328BFD2F1B3
:1014D0007F6C0BD95FEA001C43EAC20242EB5070FA
:1014E00018BF704728BF20F001007047B2F5801F79
:1014F000BCBF184670474FEA410C1CF5001F02D2D2
:10150000084600F02BB970B500F0D4F8000000894F
:10151000FFF7F6BF4FF00040A0F5800070470000D5
:1015200002494FF0000000F01EB900BF0000F87F34
:1015300010F0004248BF4042B0FA80F310FA03F1C5
:101540000AD0C3F11D0303F580634FEA415002EB5B
:10155000035202EBD12170474FF0000070470000AA
:10156000DFF848C170B51CEA111E1EBF1CEA131536
:101570009EEA0C0F95EA0C0F00F06F8081EA0304DD
:1015800023EA4C134EEAD47E21EA4C1141F4801137
:1015900043F48013AE44A1FB024CA0FB0365AEF103
:1015A0007F7E361955EB0C05A1FB034C4CF1000373
:1015B000A0FB021C16EB0C06654153F10003094227
:1015C00018BF46F0010613F4007F0BD14FEA033138
:1015D0004FEA0530340341EA155140EA16506FF0E6
:1015E00003020AE04FEAC3214FEAC520F40241EAB0
:1015F000555140EA56506FF0020202EB2E4201EBC9
:10160000025585EACE710AD05FEA440C18BF24F077
:10161000004450F1000041F1000120EAD47040F292
:10162000FE7C624500D270BDA84214BF4FF08044DA
:101630004FF04044002E08BF0024BEF1806FA8BFC9
:10164000A1F1C041BDE8704080F282804FF00000FF
:1016500001F1C04101F0004170479EEA0C0F0CEA15
:10166000131518BF95EA0C0F06D04FF0000081EA61
:10167000030E0EF0004170BD00F01CF88900013E21
:1016800000F007B800F009B84FEA430C5FEA5C5C71
:1016900008D081EA030100F05BB84FEA410C5FEA31
:1016A0005C5CF6D14FF00000014970470000FF0775
:1016B0000000F87F0EF1020E2EF0030E5EF8046BB0
:1016C000364205D4012A43EB030515F5001F12D855
:1016D000012841EB010C1CF5001F0CD80ED14FEA7C
:1016E000D17C15F5001F0CEB4C0C0CF1020C08BF63
:1016F0004CEBD37C04E04FF0080C01E04FEAD37CC4
:101700000CEB4C0526FA05F606F00706B6F1040CBC
:1017100006D20EEB860CBDE870404CF0010C604721
:10172000DFE80CF0090B02024FF000414FF000001F
:10173000A1F5002170BD19461046012851EB0104A6
:1017400018BFD4F5001484BF002001F0004170BD23
:101750000808A0F500114FEA31017047FF2141EA66
:10176000D050C00570470CF00F03092B08BF0820AC
:1017700000F059800A2B0BD0082B18BF704708BF08
:101780001CF0400F0AD04FF000004FF000017047EE
:101790001CF0400F18BF4FF0004070471CF0100FB6
:1017A00008D020F0704300F07F4242EAD3014FEAB4
:1017B0004370704700F0604021F07F4242EA00022F
:1017C00001F07F4040EA727070474FF0FF0C4CF41C
:1017D000E06C1CEA11531CBF9CEA030C9445C2BF89
:1017E000DA4201EB02517047002B0DD0BCF1000F23
:1017F0000FD0002A01F00041A4BF41F0E04141F0C8
:101800007F614FF00000704701F000414FF0000091
:10181000704750EA01334FF09B0C18BF4CF0806CBE
:101820007FF47EAE70471CF4801F11D01CF4E02FB3
:1018300003D06FEACC31490070474FF04050EFF3CE
:10184000008222F0704242EA000282F30088704770
:101850004FF0000070470102020304050607080963
:101860000A0B0C0D0E0F101000000000000000000D
:101870000102030406070809000000000102030436
:10188000A018000800000020200000002801000827
:10189000C018000820000020B8060000440100081D
:1018A0000000000000000000000000000000000038
:1018B0000100000010000000000000000024F400FF
:04000005080000ED02
:00000001FF
